S00F000030372D756172742E73726563C5
S11300000C9434000C9451000C9451000C94510045
S11300100C9451000C9451000C9451000C94510018
S11300200C9451000C9451000C9451000C94510008
S11300300C9451000C9469010C9451000C945100DF
S11300400C9451000C9451000C9440020C946E02D8
S11300500C9451000C947E010C9451000C945100AA
S11300600C9451000C94510011241FBECFEFD8E022
S1130070DEBFCDBF11E0A0E0B1E0E8E1F6E002C0F0
S113008005900D92A234B107D9F721E0A2E4B1E0C2
S113009001C01D92A738B207E1F70E94FA000C9440
S11300A00A030C940000299A85E08A95F1F7000070
S11300B029980895CF93C82F662311F0289A01C078
S11300C02898549A559A569A579A5F985E985D98CC
S11300D05C98CC230CF45F9AC6FD5E9AC5FD5D9ACC
S11300E0C4FD5C9A0E9453005F985E985D985C988A
S11300F0C3FD5F9AC2FD5E9AC1FD5D9AC0FD5C9A24
S11301000E9453005C9A5D9A5E9A5F9A87EB9BE02B
S11301100197F1F700C00000CF91089560E00E94BC
S11301205A00089561E00E945A000895611104C0C4
S113013080580E948E00089580540E948E00089575
S113014081E00E948E00089561E00E945A000895A3
S1130150CF93DF93EC012196FC018081882329F061
S11301600E94A40089918111FBCFDF91CF91089562
S1130170CF93C82F209A559A219A549A559A569AF1
S1130180579A8FEF99EF0197F1F700C000005D9A3D
S11301905C9A0E9453008FE19EE40197F1F700C03E
S11301A000000E9453008FEF90E00197F1F700C028
S11301B000000E9453008FEF90E00197F1F700C018
S11301C000005C980E9453008FEF90E00197F1F7D4
S11301D000C0000088E20E948E0088E00E948E0029
S11301E00E94A00086E00E948E008C2F0E948E0048
S11301F0CF9108958CE00E94B80060E081E00E94F5
S1130200960088E091E00E94A80061E083E00E94EB
S113021096008FE091E00E94A80060E088E00E94D0
S1130220960084E191E00E94A80060E08DE00E94C5
S1130230960086E191E00E94A80061E088E00E94B7
S1130240960088E191E00E94A80080E40E948E005C
S1130250C0E0D1E008E011E089910E949200C0174B
S1130260D107D1F780E80E948E0061E080E00E940F
S1130270960080E00E94A40061E081E00E94960064
S113028080E00E94A400ECE7F0E080818064808339
S113029080818E7F8083EAE7F0E0808180688083BC
S11302A0808188608083808187608083E1E8F0E0DA
S11302B080818B7F8083808183608083EFE6F0E0A0
S11302C080818160808387E690E00E949802789420
S11302D0FFCF1F920F920FB60F9211248F93EF93BB
S11302E0FF93EAE7F0E0808180648083FF91EF91DF
S11302F08F910F900FBE0F901F9018951F920F9221
S11303000FB60F9211240F931F932F933F934F9384
S11303105F936F937F938F939F93AF93BF93EF9369
S1130320FF93CF93DF9300D000D0CDB7DEB780E347
S113033090E39A8389839C838B8300917800109146
S113034079004AE0BE016F5F7F4FC8010E94D50269
S113035060E088E00E9496008AE191E00E94A80093
S113036060E088E00E949600CE0101960E94A800F9
S1130370CE0101960E94C6028FE191E00E94C6025E
S113038060E08DE00E9496008AE191E00E94A8005E
S113039040E1BE016F5F7F4FC8010E94D50260E05B
S11303A08DE00E949600CE0101960E94A80061E0B3
S11303B088E00E9496008AE191E00E94A80061E032
S11303C08CE00E9496008AE191E00E94A80061E01E
S11303D088E00E9496004AE0BE016F5F7F4FC8012B
S11303E00E94D502093E23E0120720F082E291E048
S11303F00E94A800C801895592408F38914020F48A
S113040087E291E00E94A800C8018F55914083368D
S1130410910520F48EE291E00E94A800C801895C55
S113042091098534910520F483E391E00E94A800AA
S1130430C80106978237910520F488E391E00E9471
S1130440A800012B21F48BE391E00E94A8000F90F7
S11304500F900F900F90DF91CF91FF91EF91BF918B
S1130460AF919F918F917F916F915F914F913F9148
S11304702F911F910F910F900FBE0F901F90189501
S11304801F920F920FB60F9211242F938F939F9365
S1130490EF93FF938091C0002091C6008C71E0918E
S11304A04401EF5FEF7190914301E91739F0E09354
S11304B04401F0E0E95BFE4F208301C082E09091AB
S11304C04201892B80934201FF91EF919F918F917B
S11304D02F910F900FBE0F901F9018951F920F929F
S11304E00FB60F9211248F939F93EF93FF939091E4
S11304F0460180914501981769F0E0914501EF5F4D
S1130500EF71E0934501F0E0E959FE4F808180935B
S1130510C60005C0E1ECF0E080818F7D8083FF910F
S1130520EF919F918F910F900FBE0F901F90189590
S11305301092460110924501109244011092430119
S113054099231CF422E02093C00090789093C50076
S11305508093C40088E98093C10086E08093C20040
S11305600895209146012F5F2F719091450129171D
S1130570E1F3E22FF0E0E959FE4F80832093460136
S1130580E1ECF0E08081806280830895CF93DF9373
S1130590EC018881882331F021960E94B10289916F
S11305A08111FBCFDF91CF910895BB274A3031F4FD
S11305B0992322F4BDE2909581959F4F0C94E1021A
S11305C0BB27FB015527AA27880F991FAA1FA41729
S11305D010F0A41B83955051B9F7A05DAA3308F01D
S11305E0A95DA193009779F7B111B1931192CB0151
S11305F00C94FA02DC01FC01672F71917723E1F777
S1130600329704C07C916D9370836291AE17BF07DB
S10B0610C8F30895F894FFCF2C
S11306180A0A0A00110E000076616C75653A006BCF
S113062865793A0061006200630020202020000DF3
S11306380A004E4F4E450053454C454354004C4523
S1130648465400444F574E005550005249474854A9
S105065800009C
S9030000FC
