S00B00006C65642E73726563E4
S11300000C9434000C943E000C943E000C943E007E
S11300100C943E000C943E000C943E000C943E0064
S11300200C943E000C943E000C943E000C943E0054
S11300300C943E000C943E000C943E000C943E0044
S11300400C943E000C943E000C943E000C943E0034
S11300500C943E000C943E000C943E000C943E0024
S11300600C943E000C943E0011241FBECFEFD8E048
S1130070DEBFCDBF0E9440000C9481000C940000B0
S113008084B1806284B985B18F7D85B995B180E2F0
S1130090982795B92FEF33EC99E0215030409040E8
S11300A0E1F700C0000095B19F7D95B92FEF35EAC7
S11300B09EE0215030409040E1F700C0000095B12F
S11300C0892785B92FEF3BE48DE1215030408040F2
S11300D0E1F700C0000085B18F7D85B99FEF25EA67
S11300E03EE0915020403040E1F700C000008FEF27
S11300F09BE524E4815090402040E1F700C00000DB
S1090100C5CFF894FFCF07
S9030000FC
