S00C00006C6564732E7372656370
S11300000C9434000C943E000C943E000C943E007E
S11300100C943E000C943E000C943E000C943E0064
S11300200C943E000C943E000C943E000C943E0054
S11300300C943E000C943E000C943E000C943E0044
S11300400C943E000C943E000C943E000C943E0034
S11300500C943E000C943E000C943E000C943E0024
S11300600C943E000C943E0011241FBECFEFD8E048
S1130070DEBFCDBF0E9440000C9465000C940000CC
S1130080259A2D98389A40988AB18AB95F9A20E2C5
S113009091E03FEF49E688E1315040408040E1F78C
S11300A000C0000085B1822785B988B1892788B945
S11300B03FEF49E688E1315040408040E1F700C01D
S11100C000004F99E6CF4098E4CFF894FFCFAC
S9030000FC
